:100000000C942A000C9447000C9447000C94470071
:100010000C9447000C9447000C9447000C94470044
:100020000C9447000C9447000C9447000C941B0957
:100030000C9447000C9447000C9447000C94470024
:100040000C9447000C9447000C9447000C94470014
:100050000C94470011241FBECFE5D8E0DEBFCDBF12
:1000600012E0A0E6B0E0EAE4F0E402C005900D92F0
:10007000AE30B107D9F712E0AEE0B2E001C01D9298
:10008000AF31B107E1F70E94D91C0C9423200C94E6
:100090000000EF92FF920F931F937B018C0120E0F1
:1000A00030E040E05FE40E94F50388238CF0C80153
:1000B000B70120E030E040E05FE40E94C1010E940F
:1000C00055049B01AC01205030404040504806C0D0
:1000D000C801B7010E9455049B01AC01B901CA01D6
:1000E0001F910F91FF90EF900895A0E0B0E0EBE733
:1000F000F0E00C94EC1FDC012B01FA019C91923092
:1001000008F439C1EB018881823008F433C194309E
:1001100069F4843009F02FC111969C91119789815F
:10012000981709F428C1A1E0B1E025C1843009F491
:1001300021C18230A9F4923009F01DC19A01AD01AC
:1001400088E0EA010990AE01E90109929E0181501F
:10015000C1F7E201898111969C918923818308C1AD
:10016000923009F407C112962D903C901397EB0141
:100170008A819B811496AD90BD90CD90DC901797AD
:10018000EC80FD800E811F819101281B390BB90184
:1001900037FF04C066277727621B730B6032710537
:1001A0000CF061C0121613066CF537014801062EDB
:1001B00004C096948794779467940A94D2F721E0C8
:1001C00030E040E050E004C0220F331F441F551FB1
:1001D0006A95D2F721503040404050402E213F21B7
:1001E00040235123211531054105510521F021E01E
:1001F00030E040E050E079018A01E628F72808293C
:1002000019293CC0232BD1F1260E371E350146019A
:10021000062E04C096948794779467940A94D2F734
:1002200021E030E040E050E004C0220F331F441FC3
:10023000551F6A95D2F721503040404050402A2146
:100240003B214C215D21211531054105510521F04E
:1002500021E030E040E050E059016A01A628B728CB
:10026000C828D9280BC0821593052CF01C01AA249C
:10027000BB24650103C0EE24FF24870111969C91E5
:10028000D20111968C91981709F445C0992339F041
:10029000A80197012A193B094C095D0906C0A6016E
:1002A00095012E193F09400B510B57FD08C01182D3
:1002B0003382228224833583468357831DC081E0A5
:1002C00081833382228288279927DC01821B930B4A
:1002D000A40BB50B84839583A683B7830DC0220F2F
:1002E000331F441F551F24833583468357838281E0
:1002F000938101979383828324813581468157813D
:10030000DA01C9010197A109B1098F5F9F4FAF4F72
:10031000BF4328F30BC0918333822282EA0CFB1C7B
:100320000C1D1D1DE482F5820683178383E0808304
:10033000248135814681578157FF1AC0C901AA27F8
:1003400097FDA095BA2F81709070A070B0705695EF
:10035000479537952795822B932BA42BB52B848318
:100360009583A683B7838281938101969383828349
:10037000DF0101C0D201CD01CDB7DEB7E2E10C94BF
:100380000820A0E2B0E0E7ECF1E00C94F81F6983EC
:100390007A838B839C832D833E834F835887E9E048
:1003A000EE2EF12CEC0EFD1ECE010196B7010E943F
:1003B00046068E010F5E1F4FCE010596B8010E94C2
:1003C00046068A8991E089278A8BC701B801AE0168
:1003D000475E5F4F0E9475000E947105A096E6E09F
:1003E0000C941420A0E2B0E0E8EFF1E00C94F81FC8
:1003F00069837A838B839C832D833E834F835887C5
:10040000F9E0EF2EF12CEC0EFD1ECE010196B701A6
:100410000E9446068E010F5E1F4FCE010596B80161
:100420000E944606C701B801AE01475E5F4F0E94B9
:1004300075000E947105A096E6E00C941420A0E2DD
:10044000B0E0E5E2F2E00C94EC1F69837A838B83E1
:100450009C832D833E834F835887CE010196BE0136
:10046000675F7F4F0E944606CE010596BE016F5E14
:100470007F4F0E9446069985923088F089898230A4
:10048000C8F0943019F4823051F404C0843029F457
:10049000923081F481E091E0C6C0923049F420E0CE
:1004A0009A858A89981321E02A87CE010996BBC0D4
:1004B000823049F420E09A858A89981321E02A8BBA
:1004C000CE014196B0C02D843E844F8458886D88FB
:1004D0007E888F88988CEE24FF248701AA24BB2471
:1004E000650140E050E060E070E0E0E0F0E0C10174
:1004F00081709070892BE9F0E60CF71C081D191D1E
:100500009A01AB012A0D3B1D4C1D5D1D80E090E062
:10051000A0E0B0E0E614F7040805190520F481E036
:1005200090E0A0E0B0E0BA01A901480F591F6A1F8E
:100530007B1FAA0CBB1CCC1CDD1C97FE08C081E0F5
:1005400090E0A0E0B0E0A82AB92ACA2ADB2A3196B6
:10055000E032F10549F0660C771C881C991C569412
:10056000479437942794C3CFFA85EA892B893C892D
:100570008B859C85280F391F2E5F3F4F17C0CA01FE
:1005800081709070892B61F016950795F794E79428
:1005900080E090E0A0E0B0E8E82AF92A0A2B1B2BC3
:1005A00076956795579547952F5F3F4F77FDE7CF36
:1005B0000CC0440F551F661F771F17FD4160EE0CDE
:1005C000FF1C001F111F21503040403090E05907A0
:1005D00090E0690790E4790760F32B8F3C8FDB0193
:1005E000CA018F779070A070B07080349105A1051A
:1005F000B10561F447FD0AC0E114F10401051105DC
:1006000029F0405C5F4F6F4F7F4F40781A8EFE1786
:1006100011F081E08A8F4D8F5E8F6F8F78A383E01A
:10062000898FCE0149960E947105A096E2E10C9453
:100630000820A8E1B0E0EFE1F3E00C94F41F698337
:100640007A838B839C832D833E834F835887B9E0C5
:10065000EB2EF12CEC0EFD1ECE010196B7010E948F
:1006600046068E010F5E1F4FCE010596B8010E940F
:1006700046062985223008F47EC03989323010F4CC
:10068000B8017CC08A859A8989278A87243011F02D
:10069000223031F4231709F06EC061E071E06EC0C2
:1006A000343039F41D861E861F86188A1C861B86E8
:1006B00004C0323021F484E08987B7015FC02B8504
:1006C0003C858B899C89281B390B3C872B87ED84C3
:1006D000FE840F851889AD88BE88CF88D88CEA142F
:1006E000FB040C051D0540F4EE0CFF1C001F111F40
:1006F000215030403C872B8720E030E040E050E044
:1007000080E090E0A0E0B0E460E070E0EA14FB0478
:100710000C051D0540F0282B392B4A2B5B2BEA18C2
:10072000FB080C091D09B695A79597958795EE0CC2
:10073000FF1C001F111F6F5F7F4F6F31710531F775
:10074000DA01C9018F779070A070B0708034910584
:10075000A105B10561F427FD0AC0E114F10401050A
:10076000110529F0205C3F4F4F4F5F4F20782D87B8
:100770003E874F87588BBE01675F7F4FCB010E943A
:1007800071056896EAE00C941020A8E1B0E0EBEC6B
:10079000F3E00C94F81F69837A838B839C832D8309
:1007A0003E834F83588789E0E82EF12CEC0EFD1E26
:1007B000CE010196B7010E9446068E010F5E1F4FC3
:1007C000CE010596B8010E9446068985823040F028
:1007D0008989823028F0C701B8010E94BE0601C095
:1007E0008FEF6896E6E00C941420A8E1B0E0EBEF00
:1007F000F3E00C94F81F69837A838B839C832D83A9
:100800003E834F83588789E0E82EF12CEC0EFD1EC5
:10081000CE010196B7010E9446068E010F5E1F4F62
:10082000CE010596B8010E9446068985823040F0C7
:100830008989823028F0C701B8010E94BE0601C034
:100840008FEF6896E6E00C941420A8E1B0E0EBE2AC
:10085000F4E00C94F81F69837A838B839C832D8347
:100860003E834F83588789E0E82EF12CEC0EFD1E65
:10087000CE010196B7010E9446068E010F5E1F4F02
:10088000CE010596B8010E9446068985823040F067
:100890008989823028F0C701B8010E94BE0601C0D4
:1008A00081E06896E6E00C941420ACE0B0E0EBE563
:1008B000F4E00C94FC1F69837A838B839C83CE01C4
:1008C0000196BE016B5F7F4F0E9446068D8182308C
:1008D00061F1823050F1843021F48E81882351F10E
:1008E0002EC02F81388537FD20C06E812F31310514
:1008F0001CF06623F9F023C08EE190E0821B930B7D
:1009000029853A854B855C8504C056954795379572
:1009100027958A95D2F76623B1F05095409530958A
:1009200021953F4F4F4F5F4F0EC020E030E040E039
:1009300050E009C02FEF3FEF4FEF5FE704C020E02A
:1009400030E040E050E8B901CA012C96E2E00C9496
:100950001820A8E0B0E0EFEAF4E00C94F41F7B016B
:100960008C01611571058105910519F482E0898377
:1009700060C083E089838EE1C82ED12CDC82CB82DB
:10098000ED82FE820F831887C801B7010E942205FD
:10099000FC013197F7FF3BC0222733272E1B3F0B6B
:1009A00057016801022E04C0D694C794B794A79447
:1009B0000A94D2F740E050E060E070E081E090E01F
:1009C000A0E0B0E004C0880F991FAA1FBB1F2A95A2
:1009D000D2F70197A109B1098E219F21A023B1234C
:1009E0000097A105B10521F041E050E060E070E022
:1009F0004A295B296C297D294D835E836F83788723
:100A00008EE190E08E1B9F0B9C838B8312C03097EE
:100A100081F00E2E04C0EE0CFF1C001F111F0A9463
:100A2000D2F7ED82FE820F831887CE1ADF0ADC82AE
:100A3000CB821A82CE0101960E9471052896EAE0C7
:100A40000C941020EF92FF920F931F937B018C0167
:100A500080E0E81680E0F80681E0080780E01807EB
:100A600088F48FEFE816F1040105110531F028F044
:100A700088E090E0A0E0B0E017C080E090E0A0E067
:100A8000B0E012C080E0E81680E0F80680E00807D9
:100A900081E0180728F088E190E0A0E0B0E004C011
:100AA00080E190E0A0E0B0E020E230E040E050E003
:100AB000281B390B4A0B5B0B04C016950795F7945E
:100AC000E7948A95D2F7F701E75FFE4F8081281BF4
:100AD000310941095109C9011F910F91FF90EF9010
:100AE0000895DF92EF92FF920F931F93FC01E48031
:100AF000F58006811781D1808081823048F480E0C2
:100B000090E0A0E1B0E0E82AF92A0A2B1B2BA5C04F
:100B1000843009F49FC0823021F4EE24FF24870141
:100B200005C0E114F1040105110519F4E0E0F0E05D
:100B300096C0628173819FEF623879070CF05BC0C9
:100B400022E83FEF261B370B2A3131052CF020E03D
:100B500030E040E050E02AC0B801A701022E04C0F6
:100B600076956795579547950A94D2F781E090E07E
:100B7000A0E0B0E004C0880F991FAA1FBB1F2A95F0
:100B8000D2F70197A109B1098E219F21A023B1239A
:100B90000097A105B10521F081E090E0A0E0B0E070
:100BA0009A01AB01282B392B4A2B5B2BDA01C901A7
:100BB0008F779070A070B07080349105A105B10559
:100BC00039F427FF09C0205C3F4F4F4F5F4F04C0EF
:100BD000215C3F4F4F4F5F4FE0E0F0E02030A0E05E
:100BE0003A07A0E04A07A0E45A0710F0E1E0F0E07D
:100BF00079018A0127C06038710564F5FB01E1586D
:100C0000FF4FD801C7018F779070A070B07080340B
:100C10009105A105B10539F4E7FE0DC080E490E02F
:100C2000A0E0B0E004C08FE390E0A0E0B0E0E80E08
:100C3000F91E0A1F1B1F17FF05C016950795F7948D
:100C4000E794319687E016950795F794E7948A958F
:100C5000D1F705C0EE24FF248701EFEFF0E06E2FFF
:100C6000679566276795902F9F77D794DD24D79453
:100C70008E2F8695492F462B582F5D29B701CA0123
:100C80001F910F91FF90EF90DF900895FC01DB0121
:100C9000408151812281622F6F7770E0221F2227CD
:100CA000221F9381892F880F822B282F30E0991FD4
:100CB0009927991F11969C93119721153105A9F534
:100CC000411551056105710511F482E037C082E8D4
:100CD0009FEF13969C938E9312979A01AB0167E056
:100CE000220F331F441F551F6A95D1F783E08C9361
:100CF0000DC0220F331F441F551F12968D919C91DA
:100D00001397019713969C938E931297203080E04F
:100D1000380780E0480780E4580758F314962D936D
:100D20003D934D935C93179708952F3F310579F4C8
:100D3000411551056105710519F484E08C930895FE
:100D400064FF03C081E08C9312C01C9210C02F5727
:100D5000304013963C932E93129783E08C9387E058
:100D6000440F551F661F771F8A95D1F7706414963C
:100D70004D935D936D937C93179708951F93DC01BA
:100D8000FB019C91923008F447C08081823008F4C6
:100D900043C0943051F411961C91843099F58181AF
:100DA000682F70E0611B71093FC0843021F09230E0
:100DB00031F48230B9F18181882389F12DC01196F7
:100DC0001C9111978230F1F081811817D9F4129695
:100DD0002D913C911397828193818217930794F010
:100DE00028173907BCF014968D919D910D90BC91F8
:100DF000A02D2481358146815781281739074A075C
:100E00005B0718F4112341F00AC082179307A40767
:100E1000B50740F4112319F061E070E005C06FEFF1
:100E20007FEF02C060E070E0CB011F910895DF9377
:100E3000CF93CDB7DEB7A3E5B0E0E3E5F0E0808186
:100E40008F7B8C93A3E5B0E0E3E5F0E08081877FC2
:100E50008C93A9E5B0E0E9E5F0E0808181608C93B6
:100E6000CF91DF910895DF93CF93CDB7DEB72C9765
:100E70000FB6F894DEBF0FBECDBF69877A878B8728
:100E80009C8780E490E0A0E0B0E08D839E83AF83F8
:100E9000B88789859A85AB85BC8528EE33E040E02C
:100EA00050E0BC01CD010E94701FDC01CB012D81FF
:100EB0003E814F815885BC01CD010E94AF1FDA01F0
:100EC000C90189839A83AB83BC8389819A81AB8171
:100ED000BC81892F9A2FAB2FBB2780930E02909352
:100EE0000F02A0931002B093110289818093160221
:100EF000809116028823C9F0E2E5F0E080911602A5
:100F00008195808380910E0290910F02A091100232
:100F1000B09111020196A11DB11D80930E02909314
:100F20000F02A0931002B09311022C960FB6F89402
:100F3000DEBF0FBECDBFCF91DF910895DF93CF937A
:100F400000D00F92CDB7DEB789838981282F30E09A
:100F50003B832A838A819B81009731F02A813B81E0
:100F600021303105B9F02BC0A3E5B0E0E3E5F0E0B6
:100F7000808181608C93A3E5B0E0E3E5F0E08081BF
:100F80008D7F8C93A3E5B0E0E3E5F0E080818460A1
:100F90008C9315C0AEE4B0E0EEE4F0E080818160B7
:100FA0008C93AEE4B0E0EEE4F0E080818D7F8C9332
:100FB000AEE4B0E0EEE4F0E0808184608C930F90CA
:100FC0000F900F90CF91DF910895DF93CF9300D0D2
:100FD0000F92CDB7DEB789838981282F30E03B831C
:100FE0002A838A819B81009731F02A813B812130BD
:100FF0003105B9F02BC0A3E5B0E0E3E5F0E0808176
:101000008E7F8C93A3E5B0E0E3E5F0E080818D7FF7
:101010008C93A3E5B0E0E3E5F0E080818B7F8C93D7
:1010200015C0AEE4B0E0EEE4F0E080818E7F8C93FA
:10103000AEE4B0E0EEE4F0E080818D7F8C93AEE42E
:10104000B0E0EEE4F0E080818B7F8C930F900F9006
:101050000F90CF91DF910895DF93CF9300D00F923F
:10106000CDB7DEB789838981282F30E03B832A837F
:101070008A819B81009731F02A813B8121303105A3
:10108000A1F047C087E161E00E949A09A3E5B0E0C2
:10109000E3E5F0E080818F7E8C93A3E5B0E0E3E5AB
:1010A000F0E0808180628C9334C08DE261E00E9428
:1010B0009A09AFE4B0E0EFE4F0E080818E7F8C939A
:1010C000AFE4B0E0EFE4F0E0808182608C93AEE4C6
:1010D000B0E0EEE4F0E0808188608C93AEE4B0E0B4
:1010E000EEE4F0E0808180618C93AFE4B0E0EFE467
:1010F000F0E080818F7B8C93AFE4B0E0EFE4F0E030
:10110000808180688C93E6E4F0E084E091E0918354
:1011100080830F900F900F90CF91DF9108950F93E0
:101120001F93DF93CF93CDB7DEB727970FB6F89411
:10113000DEBF0FBECDBF89834A835B836C837D8313
:101140008981282F30E03F832E838E819F810097F5
:10115000D9F1EE81FF81E130F105B1F50AE410E04B
:10116000E6E4F0E080819181CC01A0E0B0E0BC0138
:10117000CD010E94A904DC01CB01BC01CD012A8173
:101180003B814C815D810E941F02DC01CB01BC01CF
:10119000CD0120E030E048EC52E40E941903DC016C
:1011A000CB01BC01CD0120E030E040E85FE30E94CC
:1011B000C101DC01CB01BC01CD010E944900DC0171
:1011C000CB01F8019183808327960FB6F894DEBF98
:1011D0000FBECDBFCF91DF911F910F910895DF9387
:1011E000CF930F92CDB7DEB7898389810E949E0786
:1011F0000F90CF91DF910895DF93CF930F92CDB7EA
:10120000DEB7898389810E94E5070F90CF91DF9136
:101210000895DF93CF9300D0CDB7DEB79A8389834B
:1012200089819A8190931E0280931D020F900F90E6
:10123000CF91DF9108951F920F920FB60F92112454
:101240002F933F934F935F936F937F938F939F93CE
:10125000AF93BF93EF93FF93DF93CF93CDB7DEB7F9
:101260008091170290911802A0911902B0911A0270
:101270000196A11DB11D8093170290931802A093AF
:101280001902B0931A02209117023091180240916E
:10129000190250911A0280910E0290910F02A091B2
:1012A0001002B0911102281739074A075B0799F419
:1012B000E0911D02F0911E02099510921702109202
:1012C00018021092190210921A02E2E5F0E08091E1
:1012D000160281958083CF91DF91FF91EF91BF91AD
:1012E000AF919F918F917F916F915F914F913F91BE
:1012F0002F910F900FBE0F901F901895DF93CF93F3
:10130000CDB7DEB7AFE5B0E0EFE5F0E08081806813
:101310008C93CF91DF910895DF93CF93CDB7DEB754
:10132000AFE5B0E0EFE5F0E080818F778C93CF916F
:10133000DF910895DF93CF93CDB7DEB72A970FB62D
:10134000F894DEBF0FBECDBF8B836C838B819AE098
:10135000692F0E948F1F892F8A838B819AE0692FC2
:101360000E948F1F89838C81282F30E03A8729873C
:1013700089859A85009739F029853A85213031058C
:1013800009F476C0E4C08981282F30E038872F83A4
:101390008F8198858230910561F12F8138852330C6
:1013A000310534F48F8198858130910569F0CFC083
:1013B0002F8138852330310589F18F8198858430DC
:1013C000910509F440C0C3C0AAE3B0E0EAE3F0E04D
:1013D0008081482F8A81282F30E081E090E0022E22
:1013E00002C0880F991F0A94E2F7809584238C939A
:1013F000AEC0A7E3B0E0E7E3F0E08081482F8A8148
:10140000282F30E081E090E0022E02C0880F991F63
:101410000A94E2F7809584238C9399C0A4E3B0E00A
:10142000E4E3F0E08081482F8A81282F30E081E0DA
:1014300090E0022E02C0880F991F0A94E2F780956F
:1014400084238C9384C0A1E3B0E0E1E3F0E08081E9
:10145000482F8A81282F30E081E090E0022E02C0E0
:10146000880F991F0A94E2F7809584238C936FC0AC
:101470008981282F30E03E832D838D819E818230AB
:10148000910551F12D813E812330310534F48D8158
:101490009E818130910561F05AC02D813E812330BB
:1014A000310571F18D819E8184309105E9F14FC044
:1014B000AAE3B0E0EAE3F0E08081482F8A81282F98
:1014C00030E081E090E0022E02C0880F991F0A945C
:1014D000E2F7842B8C933BC0A7E3B0E0E7E3F0E0B6
:1014E0008081482F8A81282F30E081E090E0022E11
:1014F00002C0880F991F0A94E2F7842B8C9327C0AF
:10150000A4E3B0E0E4E3F0E08081482F8A81282F53
:1015100030E081E090E0022E02C0880F991F0A940B
:10152000E2F7842B8C9313C0A1E3B0E0E1E3F0E099
:101530008081482F8A81282F30E081E090E0022EC0
:1015400002C0880F991F0A94E2F7842B8C932A9685
:101550000FB6F894DEBF0FBECDBFCF91DF910895D7
:10156000DF93CF93CDB7DEB72A970FB6F894DEBFDF
:101570000FBECDBF8B836C838B819AE0692F0E9455
:101580008F1F892F8A838B819AE0692F0E948F1F7A
:1015900089838C81282F30E03A87298789859A852D
:1015A000009739F029853A852130310509F476C054
:1015B000E4C08981282F30E038872F838F81988578
:1015C0008230910561F12F8138852330310534F463
:1015D0008F8198858130910569F0CFC02F81388542
:1015E0002330310589F18F8198858430910509F484
:1015F00040C0C3C0ABE3B0E0EBE3F0E08081482F34
:101600008A81282F30E081E090E0022E02C0880F0E
:10161000991F0A94E2F7809584238C93AEC0A8E3C7
:10162000B0E0E8E3F0E08081482F8A81282F30E0A5
:1016300081E090E0022E02C0880F991F0A94E2F721
:10164000809584238C9399C0A5E3B0E0E5E3F0E0B6
:101650008081482F8A81282F30E081E090E0022E9F
:1016600002C0880F991F0A94E2F7809584238C9317
:1016700084C0A2E3B0E0E2E3F0E08081482F8A81F9
:10168000282F30E081E090E0022E02C0880F991FE1
:101690000A94E2F7809584238C936FC08981282F68
:1016A00030E03E832D838D819E818230910551F102
:1016B0002D813E812330310534F48D819E8181302E
:1016C000910561F05AC02D813E812330310571F1C1
:1016D0008D819E8184309105E9F14FC0ABE3B0E08C
:1016E000EBE3F0E08081482F8A81282F30E081E011
:1016F00090E0022E02C0880F991F0A94E2F7842B13
:101700008C933BC0A8E3B0E0E8E3F0E08081482F91
:101710008A81282F30E081E090E0022E02C0880FFD
:10172000991F0A94E2F7842B8C9327C0A5E3B0E0BD
:10173000E5E3F0E08081482F8A81282F30E081E0C6
:1017400090E0022E02C0880F991F0A94E2F7842BC2
:101750008C9313C0A2E3B0E0E2E3F0E08081482F75
:101760008A81282F30E081E090E0022E02C0880FAD
:10177000991F0A94E2F7842B8C932A960FB6F8945B
:10178000DEBF0FBECDBFCF91DF910895DF93CF9322
:1017900000D000D000D0CDB7DEB78C838C819AE02A
:1017A000692F0E948F1F892F8B838C819AE0692F6C
:1017B0000E948F1F8A8319828A81282F30E03E83FE
:1017C0002D834D815E814230510541F18D819E8195
:1017D0008330910534F42D813E812130310561F053
:1017E00052C04D815E814330510551F18D819E8102
:1017F00084309105B9F147C0E9E3F0E08081282FFA
:1018000030E08B81882F90E0A90102C05595479563
:101810008A95E2F7CA018170898335C0E6E3F0E07A
:101820008081282F30E08B81882F90E0A90102C0B1
:10183000559547958A95E2F7CA018170898323C03F
:10184000E3E3F0E08081282F30E08B81882F90E067
:10185000A90102C0559547958A95E2F7CA018170A2
:10186000898311C0E0E3F0E08081282F30E08B8194
:10187000882F90E0A90102C0559547958A95E2F717
:10188000CA0181708983898126960FB6F894DEBFDC
:101890000FBECDBFCF91DF910895DF93CF9300D0DE
:1018A00000D00F92CDB7DEB78B838B819AE0692F82
:1018B0000E948F1F892F8A838B819AE0692F0E9453
:1018C0008F1F89838981282F30E03D832C838C8171
:1018D0009D818230910551F12C813D81233031056C
:1018E00034F48C819D818130910561F05AC02C8146
:1018F0003D812330310571F18C819D8184309105CA
:10190000E9F14FC0ABE3B0E0EBE3F0E08081482FBA
:101910008A81282F30E081E090E0022E02C0880FFB
:10192000991F0A94E2F784278C933BC0A8E3B0E0A8
:10193000E8E3F0E08081482F8A81282F30E081E0C1
:1019400090E0022E02C0880F991F0A94E2F78427C4
:101950008C9327C0A5E3B0E0E5E3F0E08081482F59
:101960008A81282F30E081E090E0022E02C0880FAB
:10197000991F0A94E2F784278C9313C0A2E3B0E086
:10198000E2E3F0E08081482F8A81282F30E081E077
:1019900090E0022E02C0880F991F0A94E2F7842774
:1019A0008C930F900F900F900F900F90CF91DF912D
:1019B0000895DF93CF93CDB7DEB72A970FB6F8948B
:1019C000DEBF0FBECDBF8B836C838B819AE0692F06
:1019D0000E948F1F892F8A838B819AE0692F0E9432
:1019E0008F1F89838C81282F30E03A87298789854A
:1019F0009A85009739F029853A852130310509F417
:101A000076C0E4C08981282F30E038872F838F810A
:101A100098858230910561F12F8138852330310519
:101A200034F48F8198858130910569F0CFC02F8182
:101A300038852330310589F18F819885843091056F
:101A400009F440C0C3C0ABE3B0E0EBE3F0E0808159
:101A5000482F8A81282F30E081E090E0022E02C0DA
:101A6000880F991F0A94E2F7809584238C93AEC067
:101A7000A8E3B0E0E8E3F0E08081482F8A81282FD6
:101A800030E081E090E0022E02C0880F991F0A9496
:101A9000E2F7809584238C9399C0A5E3B0E0E5E359
:101AA000F0E08081482F8A81282F30E081E090E0AB
:101AB000022E02C0880F991F0A94E2F780958423B2
:101AC0008C9384C0A2E3B0E0E2E3F0E08081482F91
:101AD0008A81282F30E081E090E0022E02C0880F3A
:101AE000991F0A94E2F7809584238C936FC08981B3
:101AF000282F30E03E832D838D819E818230910599
:101B000051F12D813E812330310534F48D819E8148
:101B10008130910561F05AC02D813E81233031051D
:101B200071F18D819E8184309105E9F14FC0ABE365
:101B3000B0E0EBE3F0E08081482F8A81282F30E08D
:101B400081E090E0022E02C0880F991F0A94E2F70C
:101B5000842B8C933BC0A8E3B0E0E8E3F0E0808105
:101B6000482F8A81282F30E081E090E0022E02C0C9
:101B7000880F991F0A94E2F7842B8C9327C0A5E362
:101B8000B0E0E5E3F0E08081482F8A81282F30E043
:101B900081E090E0022E02C0880F991F0A94E2F7BC
:101BA000842B8C9313C0A2E3B0E0E2E3F0E08081E9
:101BB000482F8A81282F30E081E090E0022E02C079
:101BC000880F991F0A94E2F7842B8C932A960FB6FC
:101BD000F894DEBF0FBECDBFCF91DF910895DF93A4
:101BE000CF9300D00F92CDB7DEB789838981282F9C
:101BF00030E03B832A838A819B8181309105D1F03B
:101C00002A813B81223031052CF48A819B81009707
:101C100061F01EC02A813B812230310581F08A812A
:101C20009B818330910581F013C08FE260E00E94B8
:101C30009A090EC08EE260E00E949A0909C08DE206
:101C400060E00E949A0904C08BE260E00E949A0959
:101C50000F900F900F90CF91DF910895DF93CF9366
:101C6000CDB7DEB7EC970FB6F894DEBF0FBECDBF91
:101C70008AAF8FEF89AF8AAD282F30E03CAF2BAF12
:101C80008BAD9CAD8130910509F49CC02BAD3CAD72
:101C9000223031052CF48BAD9CAD009771F01FC242
:101CA0002BAD3CAD2230310509F411C18BAD9CAD9B
:101CB0008330910509F490C112C28FE20E94C60BD5
:101CC000882309F00CC280E090E0A0EFB2E48DAB75
:101CD0009EABAFABB8AF6DA97EA98FA998AD20E040
:101CE00030E04AE755E40E941F02DC01CB0189ABDA
:101CF0009AABABABBCAB69A97AA98BA99CA920E034
:101D000030E040E85FE30E94250488232CF481E062
:101D100090E098AB8FA73FC069A97AA98BA99CA92D
:101D200020E03FEF4FE757E40E94C50318164CF53B
:101D30006DA97EA98FA998AD20E030E040E251E482
:101D40000E941F02DC01CB01BC01CD010E944900B1
:101D5000DC01CB0198AB8FA70FC080E991E09EA773
:101D60008DA78DA59EA50197F1F79EA78DA78FA59D
:101D700098A9019798AB8FA78FA598A9009769F7A5
:101D800014C069A97AA98BA99CA90E944900DC0109
:101D9000CB0198AB8FA78FA598A99CA78BA78BA5E4
:101DA0009CA50197F1F79CA78BA78FE20E94C60B19
:101DB000882309F094C18FE20E94C60B8823D9F3CF
:101DC00019AE8DC18EE20E94C60B882309F087C12F
:101DD00080E090E0A0EFB2E48FA398A7A9A7BAA7EC
:101DE0006FA178A589A59AA520E030E04AE755E4DF
:101DF0000E941F02DC01CB018BA39CA3ADA3BEA359
:101E00006BA17CA18DA19EA120E030E040E85FE3C2
:101E10000E94250488232CF481E090E09AA389A3F2
:101E20003FC06BA17CA18DA19EA120E03FEF4FE7B9
:101E300057E40E94C50318164CF56FA178A589A533
:101E40009AA520E030E040E251E40E941F02DC014C
:101E5000CB01BC01CD010E944900DC01CB019AA35A
:101E600089A30FC080E991E098A38F8F8F8D98A1EF
:101E70000197F1F798A38F8F89A19AA101979AA34F
:101E800089A389A19AA1009769F714C06BA17CA1CD
:101E90008DA19EA10E944900DC01CB019AA389A3D8
:101EA00089A19AA19E8F8D8F8D8D9E8D0197F1F7BF
:101EB0009E8F8D8F8EE20E94C60B882309F00FC182
:101EC0008EE20E94C60B8823D9F319AE08C18DE2B9
:101ED0000E94C60B882309F002C180E090E0A0EFC9
:101EE000B2E4898F9A8FAB8FBC8F698D7A8D8B8D81
:101EF0009C8D20E030E04AE755E40E941F02DC019F
:101F0000CB018D8B9E8BAF8BB88F6D897E898F892E
:101F1000988D20E030E040E85FE30E9425048823AC
:101F20002CF481E090E09C8B8B8B3FC06D897E8987
:101F30008F89988D20E03FEF4FE757E40E94C5035B
:101F400018164CF5698D7A8D8B8D9C8D20E030E0D4
:101F500040E251E40E941F02DC01CB01BC01CD0133
:101F60000E944900DC01CB019C8B8B8B0FC080E968
:101F700091E09A8B898B89899A890197F1F79A8BDD
:101F8000898B8B899C8901979C8B8B8B8B899C89F6
:101F9000009769F714C06D897E898F89988D0E949A
:101FA0004900DC01CB019C8B8B8B8B899C89988BA6
:101FB0008F878F8598890197F1F7988B8F878DE2AE
:101FC0000E94C60B882309F08AC08DE20E94C60BCE
:101FD0008823D9F319AE83C08BE20E94C60B8823F5
:101FE00009F07DC080E090E0A0EFB2E48B879C8791
:101FF000AD87BE876B857C858D859E8520E030E032
:102000004AE755E40E941F02DC01CB018F839887C9
:10201000A987BA876F81788589859A8520E030E025
:1020200040E85FE30E94250488232CF481E090E0DF
:102030009E838D833FC06F81788589859A8520E056
:102040003FEF4FE757E40E94C50318164CF56B8528
:102050007C858D859E8520E030E040E251E40E9441
:102060001F02DC01CB01BC01CD010E944900DC0153
:10207000CB019E838D830FC080E991E09C838B838D
:102080008B819C810197F1F79C838B838D819E814D
:1020900001979E838D838D819E81009769F714C07F
:1020A0006F81788589859A850E944900DC01CB0182
:1020B0009E838D838D819E819A83898389819A8174
:1020C0000197F1F79A8389838BE20E94C60B8823DC
:1020D00031F48BE20E94C60B8823D9F319AE89AD87
:1020E000EC960FB6F894DEBF0FBECDBFCF91DF9157
:1020F0000895DF93CF9300D00F92CDB7DEB78983D9
:102100008981282F30E03B832A838A819B8182301A
:102110009105D9F02A813B812330310534F48A813D
:102120009B818130910561F01EC02A813B81233063
:10213000310581F08A819B818430910581F013C043
:1021400080E161E00E949A090EC08FE061E00E9488
:102150009A0909C08EE061E00E949A0904C08BE1EF
:1021600061E00E949A090F900F900F90CF91DF913C
:102170000895DF93CF9300D00F92CDB7DEB7898358
:102180008981282F30E03B832A838A819B8182309A
:102190009105D9F02A813B812330310534F48A81BD
:1021A0009B818130910561F01EC02A813B812330E3
:1021B000310581F08A819B818430910581F013C0C3
:1021C00080E161E00E94B00A0EC08FE061E00E94F1
:1021D000B00A09C08EE061E00E94B00A04C08BE141
:1021E00061E00E94B00A0F900F900F90CF91DF91A5
:1021F0000895DF93CF9300D00F92CDB7DEB78983D8
:102200008981282F30E03B832A838A819B81823019
:102210009105D9F02A813B812330310534F48A813C
:102220009B818130910561F01EC02A813B81233062
:10223000310581F08A819B818430910581F013C042
:1022400080E160E00E94B00A0EC08FE060E00E9472
:10225000B00A09C08EE060E00E94B00A04C08BE1C1
:1022600060E00E94B00A0F900F900F90CF91DF9125
:102270000895DF93CF93CDB7DEB7EB970FB6F89401
:10228000DEBF0FBECDBF89AF89AD282F30E03BAF99
:102290002AAF8AAD9BAD8230910509F493C02AAD77
:1022A0003BAD2330310534F48AAD9BAD81309105CF
:1022B00071F0F8C12AAD3BAD2330310509F4FDC002
:1022C0008AAD9BAD8430910509F472C1EBC180E108
:1022D00061E00E94B00A80E090E0AAE7B3E48DAB31
:1022E0009EABAFABB8AF6DA97EA98FA998AD20E02A
:1022F00030E04AE755E40E941F02DC01CB0189ABC4
:102300009AABABABBCAB69A97AA98BA99CA920E01D
:1023100030E040E85FE30E94250488232CF481E04C
:1023200090E098AB8FA73FC069A97AA98BA99CA917
:1023300020E03FEF4FE757E40E94C50318164CF525
:102340006DA97EA98FA998AD20E030E040E251E46C
:102350000E941F02DC01CB01BC01CD010E9449009B
:10236000DC01CB0198AB8FA70FC080E991E09EA75D
:102370008DA78DA59EA50197F1F79EA78DA78FA587
:1023800098A9019798AB8FA78FA598A9009769F78F
:1023900014C069A97AA98BA99CA90E944900DC01F3
:1023A000CB0198AB8FA78FA598A99CA78BA78BA5CE
:1023B0009CA50197F1F79CA78BA780E160E00E94A4
:1023C000B00A70C18FE061E00E94B00A80E090E046
:1023D000AAE7B3E48FA398A7A9A7BAA76FA178A586
:1023E00089A59AA520E030E04AE755E40E941F0243
:1023F000DC01CB018BA39CA3ADA3BEA36BA17CA1ED
:102400008DA19EA120E030E040E85FE30E9425041A
:1024100088232CF481E090E09AA389A33FC06BA1AC
:102420007CA18DA19EA120E03FEF4FE757E40E94E1
:10243000C50318164CF56FA178A589A59AA520E0CB
:1024400030E040E251E40E941F02DC01CB01BC01FC
:10245000CD010E944900DC01CB019AA389A30FC0E2
:1024600080E991E098A38F8F8F8D98A10197F1F764
:1024700098A38F8F89A19AA101979AA389A389A173
:102480009AA1009769F714C06BA17CA18DA19EA1B0
:102490000E944900DC01CB019AA389A389A19AA1DA
:1024A0009E8F8D8F8D8D9E8D0197F1F79E8F8D8FD5
:1024B0008FE060E00E94B00AF5C08EE061E00E940B
:1024C000B00A80E090E0AAE7B3E4898F9A8FAB8FDF
:1024D000BC8F698D7A8D8B8D9C8D20E030E04AE732
:1024E00055E40E941F02DC01CB018D8B9E8BAF8BCC
:1024F000B88F6D897E898F89988D20E030E040E823
:102500005FE30E94250488232CF481E090E09C8BFB
:102510008B8B3FC06D897E898F89988D20E03FEF3E
:102520004FE757E40E94C50318164CF5698D7A8D64
:102530008B8D9C8D20E030E040E251E40E941F0230
:10254000DC01CB01BC01CD010E944900DC01CB01C3
:102550009C8B8B8B0FC080E991E09A8B898B89894A
:102560009A890197F1F79A8B898B8B899C890197BE
:102570009C8B8B8B8B899C89009769F714C06D8924
:102580007E898F89988D0E944900DC01CB019C8B4C
:102590008B8B8B899C89988B8F878F8598890197E6
:1025A000F1F7988B8F878EE060E00E94B00A7AC0C6
:1025B0008BE161E00E94B00A80E090E0AAE7B3E41A
:1025C0008B879C87AD87BE876B857C858D859E8537
:1025D00020E030E04AE755E40E941F02DC01CB0115
:1025E0008F839887A987BA876F81788589859A852F
:1025F00020E030E040E85FE30E94250488232CF4CB
:1026000081E090E09E838D833FC06F8178858985CE
:102610009A8520E03FEF4FE757E40E94C503181664
:102620004CF56B857C858D859E8520E030E040E211
:1026300051E40E941F02DC01CB01BC01CD010E94CC
:102640004900DC01CB019E838D830FC080E991E0BE
:102650009C838B838B819C810197F1F79C838B8377
:102660008D819E8101979E838D838D819E810097B0
:1026700069F714C06F81788589859A850E94490021
:10268000DC01CB019E838D838D819E819A8389831A
:1026900089819A810197F1F79A8389838BE160E0C0
:1026A0000E94B00AEB960FB6F894DEBF0FBECDBF06
:1026B000CF91DF910895DF93CF9300D00F92CDB7E4
:1026C000DEB789838981282F30E03B832A838A8182
:1026D0009B8182309105D1F02A813B8123303105E5
:1026E00034F48A819B818130910561F01AC02A817E
:1026F0003B812330310571F08A819B8184309105C3
:1027000069F00FC080E10E944D0C0BC08FE00E9469
:102710004D0C07C08EE00E944D0C03C08BE10E945F
:102720004D0C0F900F900F90CF91DF910895DF9394
:10273000CF93CDB7DEB784E161E00E949A0985E1CD
:1027400061E00E949A0986E161E00E949A0988E1AD
:1027500061E00E949A098DE061E00E949A098CE094
:1027600061E00E949A0983E30E94011682E30E94BD
:10277000011688E20E9401168CE00E94011682E098
:102780000E94011681E00E940116CF91DF91089509
:10279000DF93CF93CDB7DEB7E9970FB6F894DEBFDE
:1027A0000FBECDBF89AF8DE061E00E94B00A89AD58
:1027B00082958F70982F917084E1692F0E94B00AE2
:1027C00089AD829586958770982F917085E1692FE4
:1027D0000E94B00A89AD8295869586958370982F60
:1027E000917086E1692F0E94B00A89AD982F991FD8
:1027F0009927991F88E1692F0E94B00A8CE061E057
:102800000E94B00A80E090E0A0E8BFE38DAB9EABF1
:10281000AFABB8AF6DA97EA98FA998AD20E030E02D
:102820004AE755E40E941F02DC01CB0189AB9AAB59
:10283000ABABBCAB69A97AA98BA99CA920E030E01D
:1028400040E85FE30E94250488232CF481E090E0B7
:1028500098AB8FA73FC069A97AA98BA99CA920E052
:102860003FEF4FE757E40E94C50318164CF56DA9DA
:102870007EA98FA998AD20E030E040E251E40E94AB
:102880001F02DC01CB01BC01CD010E944900DC012B
:10289000CB0198AB8FA70FC080E991E09EA78DA7D1
:1028A0008DA59EA50197F1F79EA78DA78FA598A945
:1028B000019798AB8FA78FA598A9009769F714C0C7
:1028C00069A97AA98BA99CA90E944900DC01CB01C6
:1028D00098AB8FA78FA598A99CA78BA78BA59CA524
:1028E0000197F1F79CA78BA78CE060E00E94B00AEB
:1028F00080E090E0A0E8BFE38FA398A7A9A7BAA7BC
:102900006FA178A589A59AA520E030E04AE755E4B3
:102910000E941F02DC01CB018BA39CA3ADA3BEA32D
:102920006BA17CA18DA19EA120E030E040E85FE397
:102930000E94250488232CF481E090E09AA389A3C7
:102940003FC06BA17CA18DA19EA120E03FEF4FE78E
:1029500057E40E94C50318164CF56FA178A589A508
:102960009AA520E030E040E251E40E941F02DC0121
:10297000CB01BC01CD010E944900DC01CB019AA32F
:1029800089A30FC080E991E098A38F8F8F8D98A1C4
:102990000197F1F798A38F8F89A19AA101979AA324
:1029A00089A389A19AA1009769F714C06BA17CA1A2
:1029B0008DA19EA10E944900DC01CB019AA389A3AD
:1029C00089A19AA19E8F8D8F8D8D9E8D0197F1F794
:1029D0009E8F8D8F89AD982F917084E1692F0E9411
:1029E000B00A89AD8695982F917085E1692F0E9474
:1029F000B00A89AD86958695982F917086E1692FEA
:102A00000E94B00A89AD869586958695982F91701B
:102A100088E1692F0E94B00A8CE061E00E94B00A50
:102A200080E090E0A0E8BFE3898F9A8FAB8FBC8FE6
:102A3000698D7A8D8B8D9C8D20E030E04AE755E4DE
:102A40000E941F02DC01CB018D8B9E8BAF8BB88F58
:102A50006D897E898F89988D20E030E040E85FE3C2
:102A60000E94250488232CF481E090E09C8B8B8BC2
:102A70003FC06D897E898F89988D20E03FEF4FE7B9
:102A800057E40E94C50318164CF5698D7A8D8B8D1D
:102A90009C8D20E030E040E251E40E941F02DC0106
:102AA000CB01BC01CD010E944900DC01CB019C8B14
:102AB0008B8B0FC080E991E09A8B898B89899A89E9
:102AC0000197F1F79A8B898B8B899C8901979C8B55
:102AD0008B8B8B899C89009769F714C06D897E89DF
:102AE0008F89988D0E944900DC01CB019C8B8B8BD8
:102AF0008B899C89988B8F878F8598890197F1F7AF
:102B0000988B8F878CE060E00E94B00A80E090E0B4
:102B1000A0EAB0E48B879C87AD87BE876B857C85F8
:102B20008D859E8520E030E04AE755E40E941F0233
:102B3000DC01CB018F839887A987BA876F8178855D
:102B400089859A8520E030E040E85FE30E94250413
:102B500088232CF481E090E09E838D833FC06F81B9
:102B6000788589859A8520E03FEF4FE757E40E94FA
:102B7000C50318164CF56B857C858D859E8520E0F8
:102B800030E040E251E40E941F02DC01CB01BC01B5
:102B9000CD010E944900DC01CB019E838D830FC0D3
:102BA00080E991E09C838B838B819C810197F1F775
:102BB0009C838B838D819E8101979E838D838D81E4
:102BC0009E81009769F714C06F81788589859A8501
:102BD0000E944900DC01CB019E838D838D819E8103
:102BE0009A83898389819A810197F1F79A838983EE
:102BF000E9960FB6F894DEBF0FBECDBFCF91DF913F
:102C00000895DF93CF93CDB7DEB7E9970FB6F89469
:102C1000DEBF0FBECDBF89AF8DE060E00E94B00A7D
:102C200089AD82958F70982F917084E1692F0E94F1
:102C3000B00A89AD829586958770982F917085E14D
:102C4000692F0E94B00A89AD82958695869583701A
:102C5000982F917086E1692F0E94B00A89AD982F54
:102C6000991F9927991F88E1692F0E94B00A8CE06B
:102C700061E00E94B00A80E090E0A0E8BFE38DAB85
:102C80009EABAFABB8AF6DA97EA98FA998AD20E080
:102C900030E04AE755E40E941F02DC01CB0189AB1A
:102CA0009AABABABBCAB69A97AA98BA99CA920E074
:102CB00030E040E85FE30E94250488232CF481E0A3
:102CC00090E098AB8FA73FC069A97AA98BA99CA96E
:102CD00020E03FEF4FE757E40E94C50318164CF57C
:102CE0006DA97EA98FA998AD20E030E040E251E4C3
:102CF0000E941F02DC01CB01BC01CD010E944900F2
:102D0000DC01CB0198AB8FA70FC080E991E09EA7B3
:102D10008DA78DA59EA50197F1F79EA78DA78FA5DD
:102D200098A9019798AB8FA78FA598A9009769F7E5
:102D300014C069A97AA98BA99CA90E944900DC0149
:102D4000CB0198AB8FA78FA598A99CA78BA78BA524
:102D50009CA50197F1F79CA78BA78CE060E00E94EF
:102D6000B00A80E090E0A0E8BFE38FA398A7A9A7EE
:102D7000BAA76FA178A589A59AA520E030E04AE717
:102D800055E40E941F02DC01CB018BA39CA3ADA3E1
:102D9000BEA36BA17CA18DA19EA120E030E040E804
:102DA0005FE30E94250488232CF481E090E09AA33D
:102DB00089A33FC06BA17CA18DA19EA120E03FEF24
:102DC0004FE757E40E94C50318164CF56FA178A58C
:102DD00089A59AA520E030E040E251E40E941F025C
:102DE000DC01CB01BC01CD010E944900DC01CB011B
:102DF0009AA389A30FC080E991E098A38F8F8F8D4C
:102E000098A10197F1F798A38F8F89A19AA10197B3
:102E10009AA389A389A19AA1009769F714C06BA10D
:102E20007CA18DA19EA10E944900DC01CB019AA347
:102E300089A389A19AA19E8F8D8F8D8D9E8D0197DB
:102E4000F1F79E8F8D8F89AD982F917084E1692F56
:102E50000E94B00A89AD8695982F917085E1692FFF
:102E60000E94B00A89AD86958695982F917086E16B
:102E7000692F0E94B00A89AD869586958695982F10
:102E8000917088E1692F0E94B00A8CE061E00E9495
:102E9000B00A80E090E0A0E8BFE3898F9A8FAB8F03
:102EA000BC8F698D7A8D8B8D9C8D20E030E04AE758
:102EB00055E40E941F02DC01CB018D8B9E8BAF8BF2
:102EC000B88F6D897E898F89988D20E030E040E849
:102ED0005FE30E94250488232CF481E090E09C8B22
:102EE0008B8B3FC06D897E898F89988D20E03FEF65
:102EF0004FE757E40E94C50318164CF5698D7A8D8B
:102F00008B8D9C8D20E030E040E251E40E941F0256
:102F1000DC01CB01BC01CD010E944900DC01CB01E9
:102F20009C8B8B8B0FC080E991E09A8B898B898970
:102F30009A890197F1F79A8B898B8B899C890197E4
:102F40009C8B8B8B8B899C89009769F714C06D894A
:102F50007E898F89988D0E944900DC01CB019C8B72
:102F60008B8B8B899C89988B8F878F85988901970C
:102F7000F1F7988B8F878CE060E00E94B00A80E0C8
:102F800090E0A0EAB0E48B879C87AD87BE876B8515
:102F90007C858D859E8520E030E04AE755E40E94DF
:102FA0001F02DC01CB018F839887A987BA876F81C5
:102FB000788589859A8520E030E040E85FE30E94CB
:102FC000250488232CF481E090E09E838D833FC00C
:102FD0006F81788589859A8520E03FEF4FE757E438
:102FE0000E94C50318164CF56B857C858D859E85E2
:102FF00020E030E040E251E40E941F02DC01CB01FE
:10300000BC01CD010E944900DC01CB019E838D8370
:103010000FC080E991E09C838B838B819C81019719
:10302000F1F79C838B838D819E8101979E838D8395
:103030008D819E81009769F714C06F81788589859D
:103040009A850E944900DC01CB019E838D838D818E
:103050009E819A83898389819A810197F1F79A8366
:103060008983E9960FB6F894DEBF0FBECDBFCF912E
:10307000DF910895DF93CF9300D00F92CDB7DEB7E5
:103080009B838A8319820EC08981282F30E08A8130
:103090009B81FC01E20FF31F80810E94C81389818C
:1030A0008F5F89838981282F30E08A819B81FC0191
:1030B000E20FF31F8081882339F70F900F900F9054
:1030C000CF91DF910895DF93CF93CDB7DEB781E045
:1030D0000E940116CF91DF9108950F931F93DF9304
:1030E000CF93CDB7DEB72F970FB6F894DEBF0FBEE4
:1030F000CDBF6C877D878E879F8719828AE0FE010E
:103100003296DF01982F1D929A95E9F78C859D855F
:10311000AE85BF85BB2394F48C859D85AE85BF8528
:10312000B095A095909581959F4FAF4FBF4F8C87DD
:103130009D87AE87BF878DE20E94C8138981082FC3
:10314000112707FD10958C859D85AE85BF852AE0EA
:1031500030E040E050E0BC01CD010E94D11FDC0115
:10316000CB01282FCE010296FC01E00FF11F208336
:103170008C859D85AE85BF852AE030E040E050E03B
:10318000BC01CD010E94D11FDA01C9018C879D8746
:10319000AE87BF8789818F5F89838C859D85AE854A
:1031A000BF850097A105B10549F611C089818150FD
:1031B00089838981282F332727FD3095CE010296F8
:1031C000FC01E20FF31F8081805D0E94C81389819A
:1031D000181664F32F960FB6F894DEBF0FBECDBF5E
:1031E000CF91DF911F910F910895DF93CF9300D07E
:1031F00000D000D0CDB7DEB78D836E8380E88983A1
:1032000080EC8A8384E98B8384ED8C838D81282FE5
:1032100030E0CE010196FC01E20FF31F90818E8118
:10322000890F0E94011626960FB6F894DEBF0FBED6
:10323000CDBFCF91DF910895DF93CF930F92CDB79C
:10324000DEB719820DC08981882F90E0FC01E75F0D
:10325000FD4F808160E00E949A0989818F5F898398
:103260008981843080F30F90CF91DF910895DF93AF
:10327000CF9300D00F92CDB7DEB79A8389830F909A
:103280000F900F90CF91DF910895DF93CF93CDB73B
:10329000DEB784E261E00E949A09CF91DF91089540
:1032A000DF93CF93CDB7DEB784E261E00E94B00A2E
:1032B000CF91DF910895DF93CF93CDB7DEB784E24E
:1032C00060E00E94B00ACF91DF910895DF93CF9321
:1032D000CDB7DEB784E20E944D0CCF91DF91089507
:1032E000DF93CF93CDB7DEB72E970FB6F894DEBF3E
:1032F0000FBECDBF84E261E00E94B00A80E090E0A2
:10330000A0EAB2E48B879C87AD87BE876B857C85FE
:103310008D859E8520E030E04AE755E40E941F023B
:10332000DC01CB018F839887A987BA876F81788565
:1033300089859A8520E030E040E85FE30E9425041B
:1033400088232CF481E090E09E838D833FC06F81C1
:10335000788589859A8520E03FEF4FE757E40E9402
:10336000C50318164CF56B857C858D859E8520E000
:1033700030E040E251E40E941F02DC01CB01BC01BD
:10338000CD010E944900DC01CB019E838D830FC0DB
:1033900080E991E09C838B838B819C810197F1F77D
:1033A0009C838B838D819E8101979E838D838D81EC
:1033B0009E81009769F714C06F81788589859A8509
:1033C0000E944900DC01CB019E838D838D819E810B
:1033D0009A83898389819A810197F1F79A838983F6
:1033E00084E260E00E94B00A2E960FB6F894DEBF29
:1033F0000FBECDBFCF91DF910895DF93CF93CDB7AF
:10340000DEB7AA970FB6F894DEBF0FBECDBF84E239
:1034100061E00E94B00A80E090E0A0EAB2E48FA3ED
:1034200098A7A9A7BAA76FA178A589A59AA520E012
:1034300030E04AE755E40E941F02DC01CB018BA378
:103440009CA3ADA3BEA36BA17CA18DA19EA120E0F6
:1034500030E040E85FE30E94250488232CF481E0FB
:1034600090E09AA389A33FC06BA17CA18DA19EA1EE
:1034700020E03FEF4FE757E40E94C50318164CF5D4
:103480006FA178A589A59AA520E030E040E251E43B
:103490000E941F02DC01CB01BC01CD010E9449004A
:1034A000DC01CB019AA389A30FC080E991E098A326
:1034B0008F8F8F8D98A10197F1F798A38F8F89A196
:1034C0009AA101979AA389A389A19AA1009769F764
:1034D00014C06BA17CA18DA19EA10E944900DC01BA
:1034E000CB019AA389A389A19AA19E8F8D8F8D8DDF
:1034F0009E8D0197F1F79E8F8D8F84E260E00E9490
:10350000B00A80E090E0A0E7B2E4898F9A8FAB8F99
:10351000BC8F698D7A8D8B8D9C8D20E030E04AE7E1
:1035200055E40E941F02DC01CB018D8B9E8BAF8B7B
:10353000B88F6D897E898F89988D20E030E040E8D2
:103540005FE30E94250488232CF481E090E09C8BAB
:103550008B8B3FC06D897E898F89988D20E03FEFEE
:103560004FE757E40E94C50318164CF5698D7A8D14
:103570008B8D9C8D20E030E040E251E40E941F02E0
:10358000DC01CB01BC01CD010E944900DC01CB0173
:103590009C8B8B8B0FC080E991E09A8B898B8989FA
:1035A0009A890197F1F79A8B898B8B899C8901976E
:1035B0009C8B8B8B8B899C89009769F714C06D89D4
:1035C0007E898F89988D0E944900DC01CB019C8BFC
:1035D0008B8B8B899C89988B8F878F859889019796
:1035E000F1F7988B8F8784E261E00E94B00A80E057
:1035F00090E0A0EAB2E48B879C87AD87BE876B859D
:103600007C858D859E8520E030E04AE755E40E9468
:103610001F02DC01CB018F839887A987BA876F814E
:10362000788589859A8520E030E040E85FE30E9454
:10363000250488232CF481E090E09E838D833FC095
:103640006F81788589859A8520E03FEF4FE757E4C1
:103650000E94C50318164CF56B857C858D859E856B
:1036600020E030E040E251E40E941F02DC01CB0187
:10367000BC01CD010E944900DC01CB019E838D83FA
:103680000FC080E991E09C838B838B819C810197A3
:10369000F1F79C838B838D819E8101979E838D831F
:1036A0008D819E81009769F714C06F817885898527
:1036B0009A850E944900DC01CB019E838D838D8118
:1036C0009E819A83898389819A810197F1F79A83F0
:1036D000898384E260E00E94B00AAA960FB6F8944B
:1036E000DEBF0FBECDBFCF91DF910895DF93CF93A3
:1036F000CDB7DEB780911B0290911C02019690938A
:103700001C0280931B02CF91DF910895DF93CF932A
:1037100000D000D00F92CDB7DEB79D838C838C8113
:103720009D812CE330E0B9010E949B1F8B838C812B
:103730009D812CE330E0B9010E949B1FCB012CE35B
:1037400030E0B9010E949B1F8A838C819D8120E11A
:103750003EE0B9010E949B1FCB01898380E066E0B7
:103760000E94F51889818823D1F089818A3068F414
:1037700080E30E94C8138981882F90E0A0E0B0E028
:10378000BC01CD010E946D180EC08981882F90E088
:10379000A0E0B0E0BC01CD010E946D1804C080E63D
:1037A00090E00E943A188AE30E94C8138A81882315
:1037B000D1F08A818A3068F480E30E94C8138A813C
:1037C000882F90E0A0E0B0E0BC01CD010E946D1810
:1037D0000EC08A81882F90E0A0E0B0E0BC01CD014E
:1037E0000E946D1804C080E690E00E943A188AE3B7
:1037F0000E94C8138B818823D1F08B818A3068F4B2
:1038000080E30E94C8138B81882F90E0A0E0B0E095
:10381000BC01CD010E946D180EC08B81882F90E0F5
:10382000A0E0B0E0BC01CD010E946D1804C080E6AC
:1038300090E00E943A180F900F900F900F900F9009
:10384000CF91DF910895DF93CF930F92CDB7DEB77D
:10385000898381E062E00E94F51883E690E00E948F
:103860003A1889818A3050F08981882F90E0A0E051
:10387000B0E0BC01CD010E946D180CC080E30E9435
:10388000C8138981882F90E0A0E0B0E0BC01CD0191
:103890000E946D1886E690E00E943A180F90CF9132
:1038A000DF910895DF93CF93CDB7DEB72B970FB697
:1038B000F894DEBF0FBECDBF8B878FEF8A831B824C
:1038C00081E08C8382E08D8383E08E8381E48F832B
:1038D00082E4888783E4898784E48A8719825BC0CD
:1038E0008981282F30E0CE010396FC01E20FF31FFF
:1038F00080810E942E0E882309F04AC08981282FDA
:1039000030E0CE010796FC01E20FF31F90818B851A
:10391000981761F481E08A8383E00E94791083E044
:103920000E94B91084E00E94F9100AC01A8284E053
:103930000E94791084E00E94B91083E00E94F9107F
:103940008981282F30E0CE010796FC01E20FF31F9A
:103950008081882F90E081549040880F991F982F84
:10396000975F81E0692F0E94F5188BE50E94C813CC
:103970008981282F30E0CE010796FC01E20FF31F6A
:1039800080810E94C8138DE50E94C8130E9470199F
:1039900089818F5F89838981843008F4A1CF8A81EE
:1039A0002B960FB6F894DEBF0FBECDBFCF91DF913F
:1039B0000895DF93CF93CDB7DEB7CE55D0400FB685
:1039C000F894DEBF0FBECDBF0E9445190E9470194A
:1039D00080E090E0A8ECB2E48DAB9EABAFABB8AFAB
:1039E0006DA97EA98FA998AD20E030E04AE755E4A3
:1039F0000E941F02DC01CB0189AB9AABABABBCAB25
:103A000069A97AA98BA99CA920E030E040E85FE38E
:103A10000E94250488232CF481E090E098AB8FA7C6
:103A20003FC069A97AA98BA99CA920E03FEF4FE785
:103A300057E40E94C50318164CF56DA97EA98FA9FD
:103A400098AD20E030E040E251E40E941F02DC012A
:103A5000CB01BC01CD010E944900DC01CB0198AB38
:103A60008FA70FC080E991E09EA78DA78DA59EA589
:103A70000197F1F79EA78DA78FA598A9019798ABFD
:103A80008FA78FA598A9009769F714C069A97AA98B
:103A90008BA99CA90E944900DC01CB0198AB8FA7A0
:103AA0008FA598A99CA78BA78BA59CA50197F1F73B
:103AB0009CA78BA70E9470190E9497130E9417075A
:103AC00086E79BE10E94090968EE73E080E090E0E0
:103AD0000E94330780E00E949E070E947E0981E0D9
:103AE0008AAF80E00E94EF0D81E00E94EF0D82E03E
:103AF0000E94EF0D83E00E94EF0DCE01CB966C96F5
:103B00009FAF8EAF6C97E2EEF0E06E96FFAFEEAF38
:103B10006E97FFE16F96FFAF6F976E96EEADFFADBC
:103B20006E9700806E968EAD9FAD6E9701966E96E5
:103B30009FAF8EAF6E976C96EEADFFAD6C97008227
:103B40006C968EAD9FAD6C9701966C969FAF8EAFC5
:103B50006C976F969FAD6F9791506F969FAF6F97D1
:103B60006F96EFAD6F97EE23C1F680911B02909197
:103B70001C020E94861B8AAD0E94231C8AAD882FDE
:103B800090E09C0121503040CE01CB96FC01E20F29
:103B9000F31F80810E94521C89AF89AD8F3F09F4C9
:103BA00087C189AD813009F07EC081E060E00E946C
:103BB000F51882E790E00E943A1880E090E0AAE7CA
:103BC000B4E48FA398A7A9A7BAA76FA178A589A5E0
:103BD0009AA520E030E04AE755E40E941F02DC018C
:103BE000CB018BA39CA3ADA3BEA36BA17CA18DA194
:103BF0009EA120E030E040E85FE30E942504882396
:103C00002CF481E090E09AA389A33FC06BA17CA132
:103C10008DA19EA120E03FEF4FE757E40E94C5032E
:103C200018164CF56FA178A589A59AA520E030E07B
:103C300040E251E40E941F02DC01CB01BC01CD0136
:103C40000E944900DC01CB019AA389A30FC080E93F
:103C500091E098A38F8F8F8D98A10197F1F798A38A
:103C60008F8F89A19AA101979AA389A389A19AA16B
:103C7000009769F714C06BA17CA18DA19EA10E9441
:103C80004900DC01CB019AA389A389A19AA19E8F47
:103C90008D8F8D8D9E8D0197F1F79E8F8D8F8AADC3
:103CA0008F5F8AAF05C180911B0290911C02CC9658
:103CB00090931C0280931B0281E060E00E94F51843
:103CC00089E890E00E943A1881E060E00E94F518CF
:103CD00080E090E0AAE7B4E4898F9A8FAB8FBC8F25
:103CE000698D7A8D8B8D9C8D20E030E04AE755E41C
:103CF0000E941F02DC01CB018D8B9E8BAF8BB88F96
:103D00006D897E898F89988D20E030E040E85FE3FF
:103D10000E94250488232CF481E090E09C8B8B8BFF
:103D20003FC06D897E898F89988D20E03FEF4FE7F6
:103D300057E40E94C50318164CF5698D7A8D8B8D5A
:103D40009C8D20E030E040E251E40E941F02DC0143
:103D5000CB01BC01CD010E944900DC01CB019C8B51
:103D60008B8B0FC080E991E09A8B898B89899A8926
:103D70000197F1F79A8B898B8B899C8901979C8B92
:103D80008B8B8B899C89009769F714C06D897E891C
:103D90008F89988D0E944900DC01CB019C8B8B8B15
:103DA0008B899C89988B8F878F8598890197F1F7EC
:103DB000988B8F878CE990E00E943A1880E090E021
:103DC000AAE7B4E48B879C87AD87BE876B857C852B
:103DD0008D859E8520E030E04AE755E40E941F0271
:103DE000DC01CB018F839887A987BA876F8178859B
:103DF00089859A8520E030E040E85FE30E94250451
:103E000088232CF481E090E09E838D833FC06F81F6
:103E1000788589859A8520E03FEF4FE757E40E9437
:103E2000C50318164CF56B857C858D859E8520E035
:103E300030E040E251E40E941F02DC01CB01BC01F2
:103E4000CD010E944900DC01CB019E838D830FC010
:103E500080E991E09C838B838B819C810197F1F7B2
:103E60009C838B838D819E8101979E838D838D8121
:103E70009E81009769F714C06F81788589859A853E
:103E80000E944900DC01CB019E838D838D819E8140
:103E90009A83898389819A810197F1F79A8389832B
:103EA00081E060E00E94F51882EB90E00E943A18F1
:103EB0008AAD8F3109F059CE81E060E00E94F5189B
:103EC00089EC90E00E943A1880E090E0C25ADF4FFF
:103ED0000FB6F894DEBF0FBECDBFCF91DF9108952E
:103EE000629FD001739FF001829FE00DF11D649FDE
:103EF000E00DF11D929FF00D839FF00D749FF00D6A
:103F0000659FF00D9927729FB00DE11DF91F639F0A
:103F1000B00DE11DF91FBD01CF0111240895991BBA
:103F200079E004C0991F961708F0961B881F7A95B0
:103F3000C9F780950895AA1BBB1B51E107C0AA1FB2
:103F4000BB1FA617B70710F0A61BB70B881F991F3A
:103F50005A95A9F780959095BC01CD010895A1E2ED
:103F60001A2EAA1BBB1BFD010DC0AA1FBB1FEE1FF3
:103F7000FF1FA217B307E407F50720F0A21BB30B3E
:103F8000E40BF50B661F771F881F991F1A9469F7BA
:103F900060957095809590959B01AC01BD01CF0116
:103FA000089597FB092E05260ED057FD04D0D7DFC4
:103FB0000AD0001C38F450954095309521953F4F1C
:103FC0004F4F5F4F0895F6F79095809570956195E6
:103FD0007F4F8F4F9F4F08952F923F924F925F9246
:103FE0006F927F928F929F92AF92BF92CF92DF9209
:103FF000EF92FF920F931F93CF93DF93CDB7DEB76E
:10400000CA1BDB0B0FB6F894DEBF0FBECDBF099401
:104010002A88398848885F846E847D848C849B8458
:10402000AA84B984C884DF80EE80FD800C811B8166
:10403000AA81B981CE0FD11D0FB6F894DEBF0FBE95
:0A404000CDBFED010895F894FFCF05
:10404A00303000512D0020202020412042204320E2
:10405A0044002020202020202D3E20475245415454
:10406A00203C2D202020202000202031204D494EA8
:10407A005554452042454E414C49590020202020A4
:10408A00202020204C4F5345522020202020202041
:10409A002000202020202020202020202020202036
:1040AA00202020202020202000202020436F6E671F
:1040BA00726174756C6174696F6E732020202020A0
:1040CA00200044444443434144444343444342421A
:1040DA0043434442424441414344444242444141AD
:1040EA0000000000000000000000010202030303B8
:1040FA000304040404040404040505050505050570
:10410A00050505050505050505060606060606064E
:10411A000606060606060606060606060606060635
:10412A00060606060606060606070707070707071E
:10413A000707070707070707070707070707070705
:10414A0007070707070707070707070707070707F5
:10415A0007070707070707070707070707070707E5
:10416A0007070707070707070708080808080808CE
:10417A0008080808080808080808080808080808B5
:10418A0008080808080808080808080808080808A5
:10419A000808080808080808080808080808080895
:1041AA000808080808080808080808080808080885
:1041BA000808080808080808080808080808080875
:1041CA000808080808080808080808080808080865
:1041DA000808080808080808080808080808080855
:0E41EA000808080808080808082F2E2D2B00CA
:00000001FF
